:020000040800F2
:1000000000500020E5010008F1020008F502000898
:10001000F9020008FD0200080103000800000000CA
:1000200000000000000000000000000005030008C0
:1000300009030008000000000D0300081103000878
:10004000E1010008E1010008E1010008E101000808
:10005000E1010008E1010008E1010008E1010008F8
:10006000E1010008E1010008E1010008E1010008E8
:10007000E1010008E1010008E1010008E1010008D8
:10008000E1010008E1010008E1010008E1010008C8
:10009000E1010008E1010008E1010008E1010008B8
:1000A000E1010008E1010008E1010008E1010008A8
:1000B000E1010008E1010008E1010008E101000898
:1000C000E1010008E1010008E1010008E101000888
:1000D000E1010008E1010008E1010008E101000878
:1000E000E1010008E1010008E1010008E101000868
:1000F000E1010008E1010008E1010008E101000858
:10010000E1010008E1010008E1010008E101000847
:10011000E1010008E101000800000000E101000821
:10012000E1010008E1010008E1010008E101000827
:1001300000000000000000000000000000000000BF
:1001400000000000000000000000000000000000AF
:10015000000000000000000000000000000000009F
:10016000000000000000000000000000000000008F
:10017000000000000000000000000000000000007F
:10018000000000000000000000000000000000006F
:10019000000000000000000000000000000000005F
:1001A000000000000000000000000000000000004F
:1001B000000000000000000000000000000000003F
:1001C000000000000000000000000000000000002F
:1001D0000000000000000000000000005FF8E0F1F7
:1001E000FEE700BF684620F007018D461448154918
:1001F00008B5814209D0144B984206D2C2431A4432
:1002000022F00302043200F0A3FD1048104B984284
:1002100007D2C2431A4422F003020432002100F044
:100220000DFE0C4B0C4A23F0684323F07F0343F090
:100230000063936000F06EF800F038F8FEE700BF4E
:1002400000000020D00E0008280000202800002018
:10025000280000200000000000ED00E00E490F48DB
:1002600008B5814209D00E4B984206D2C2431A44C7
:1002700022F00302043200F06BFD0A480A4B984258
:1002800009D2C2431A4422F0030204320021BDE81D
:10029000084000F0D3BD08BDD00E000800000020CB
:1002A00028000020280000202800002042F2070437
:1002B0001022032300B583B001A90B48ADF8044018
:1002C0008DF807208DF80630012500F04BF9074C1A
:1002D00025604FF4FA7000F023FD00234FF4FA700C
:1002E000236000F01DFDF3E700100140B40122423D
:1002F000704700BFFEE700BFFEE700BFFEE700BF9C
:10030000FEE700BF704700BF704700BF704700BFE7
:10031000704700BF30B400244FF41F053A4B3B49EF
:10032000186882B040F00100186058681A46014011
:100330005960196821F0847121F4803119601968BD
:1003400021F480211960596821F4FE0159609D60F3
:1003500000940194196841F48031196003E0009B16
:10036000B3F5A06F09D0136803F400330193009B29
:1003700001330093019B002BF1D0234B1B6813F436
:10038000003318BF01230193019B012B06D04FF0CE
:1003900000621F4B9A6002B030BC70471D491A4B77
:1003A00008681A4640F010000860086820F007004E
:1003B0000860086840F00200086059685960596890
:1003C0005960596841F480615960596821F47C1181
:1003D0005960596841F4E8115960196841F0807119
:1003E000196013689B01FCD55368074923F0030388
:1003F0005360536843F0020353604B6803F00C03EF
:10040000082BFAD1C3E700BF001002400000FFF83C
:1004100000ED00E000200240114A536803F00C0395
:10042000082B0ED153685168C3F38343C90303F10A
:10043000020310D5526892030DD40A4A02FB03F35B
:1004400000E0084B064A08495268C2F303128A5C6E
:10045000D3400B617047054A02FB03F3F2E700BF8C
:100460000010024000127A000000002000093D0048
:1004700008B52F4B98421CD02E4B984223D02E4BC0
:1004800098422AD02D4B984231D02D4B984206D01D
:100490002C4B984241D02C4B984232D008BD0121C0
:1004A000402000F0CBFBBDE808400021402000F0D8
:1004B000C5BB0121042000F0C1FBBDE808400021BC
:1004C000042000F0BBBB0121082000F0B7FBBDE811
:1004D00008400021082000F0B1BB0121102000F0ED
:1004E000ADFBBDE808400021102000F0A7BB0121B2
:1004F000202000F0A3FBBDE808400021202000F0F0
:100500009DBB01214FF4807000F098FBBDE80840CE
:1005100000214FF4807000F091BB0121802000F099
:100520008DFBBDE808400021802000F087BB00BFA4
:1005300000080140000C014000100140001401407F
:1005400000180140001C014000200140012108B5B5
:10055000084600F073FBBDE808400021012000F0D0
:100560006DBB00BF30B4CC78E30648BF8B7804F095
:100570000F0548BF1D430B8813F0FF0F33D0482CE5
:10058000026800F0F480282C00F03381D90744BFC2
:1005900022F00F022A43990744BF22F0F00242EAF8
:1005A0000512590744BF22F4706242EA0522190776
:1005B00044BF22F4704242EA0532D90644BF22F415
:1005C000702242EA0542990644BF22F4700242EAD0
:1005D0000552590644BF22F0706242EA05621906CC
:1005E00000F104810260FF2B4BD9282C42684AD0CD
:1005F000482C40F08E80D90505D54FF4807122F04B
:100600000F022A4301619C0506D54FF4007122F0C8
:10061000F00242EA05120161590506D54FF48061E6
:1006200022F4706242EA052201611C0506D54FF4EE
:10063000006122F4704242EA05320161D90406D514
:100640004FF4805122F4702242EA054201619C0479
:1006500006D54FF4005122F4700242EA05520161BE
:10066000590406D54FF4804122F0706242EA0562D7
:1006700001611C0404D54FF4004365F31F7203614C
:10068000426030BC7047D90505D54FF4807122F027
:100690000F022A4341619C0506D54FF4007122F0F8
:1006A000F00242EA05124161590506D54FF4806116
:1006B00022F4706242EA052241611C0506D54FF41E
:1006C000006122F4704242EA05324161D90406D544
:1006D0004FF4805122F4702242EA054241619C04A9
:1006E00006D54FF4005122F4700242EA05524161EE
:1006F000590406D54FF4804122F0706242EA056247
:1007000041611B04BCD54FF4004365F31F72436184
:10071000B6E7D90544BF22F00F022A439C0544BF27
:1007200022F0F00242EA0512590544BF22F4706239
:1007300042EA05221C0544BF22F4704242EA053217
:10074000D90444BF22F4702242EA05429C0444BF0B
:1007500022F4700242EA0552590444BF22F070624A
:1007600042EA05621C048BD565F31F7288E7D9073E
:1007700004D5012122F00F022A430161990705D512
:10078000022122F0F00242EA05120161590705D563
:10079000042122F4706242EA05220161190705D59D
:1007A000082122F4704242EA05320161D90605D5DA
:1007B000102122F4702242EA05420161990605D512
:1007C000202122F4700242EA05520161590605D542
:1007D000402122F0706242EA0562016119067FF54C
:1007E00001AF802165F31F720161FBE665F31F72A3
:1007F000F8E6D90704D5012122F00F022A4341610E
:10080000990705D5022122F0F00242EA0512416162
:10081000590705D5042122F4706242EA052241619C
:10082000190705D5082122F4704242EA05324161D8
:10083000D90605D5102122F4702242EA0542416111
:10084000990605D5202122F4700242EA0552416141
:10085000590605D5402122F0706242EA05624161E5
:1008600019067FF5BFAE802165F31F724161B9E6BD
:100870004FF6FF710222042301808270C37070471B
:100880008368194214BF012000207047806880B23D
:10089000704700BFC368194214BF01200020704791
:1008A000C06880B2704700BF016170474161704706
:1008B0000AB9416170470161704700BFC16070476C
:1008C00041F4803383618161836183698369704707
:1008D00010B44FF68074044A13682340194341EA68
:1008E0000011116010BC704700000140014B1860FE
:1008F000704700BF1C0020420028194B00F4401232
:10090000B4BFDB695B68B2F5401F30B484B21ED05F
:10091000C20213D50322C0F30345AA4023EA02030F
:1009200043F0706319B1420D1201944023430C4A05
:100930000028B4BFD361536030BC7047420D120130
:1009400004FA02F223EA020343F07063EAE7044D7B
:1009500023F070636A6822F070626A60E2E700BFA9
:100960000000014010B40F2401F0FC0303F18043A8
:1009700003F5803301F003019A6889008C4022EA74
:1009800004029A609A6800FA01F11143996010BC60
:10099000704700BF014B1860704700BFDC00204269
:1009A0004FF41F000C4B0D4A196841F0010119600A
:1009B00059680A405A601A6822F0847222F4803220
:1009C0001A601A6822F480221A605A6822F4FE0221
:1009D0005A609860704700BF001002400000FFF8A6
:1009E0000C4BB0F5803F1A6822F480321A601A6806
:1009F00022F480221A6008D0B0F5802F04D11A6842
:100A000042F4A0221A60704770471A6842F480329C
:100A10001A60704700100240002382B0094A019317
:100A2000136813F4003F019B03F101030193019B41
:100A300002D1B3F5A06FF3D1024B1868C0F3404068
:100A400002B0704700100240034A136823F0F80315
:100A500043EAC0001060704700100240014B18606C
:100A6000704700BF00004242034A536823F47C13DE
:100A7000194301435160704700100240014B186058
:100A8000704700BF60004242034A536823F00303EB
:100A900018435060704700BF00100240024B586876
:100AA00000F00C00704700BF00100240034A53687A
:100AB00023F0F00318435060704700BF001002405D
:100AC000034A536823F4E06318435060704700BF43
:100AD00000100240034A536823F4605343EAC00005
:100AE0005060704700100240044A137819B923EA95
:100AF00000001070704718431070704709100240D2
:100B0000014B1860704700BFD8004242034A536847
:100B100023F4404318435060704700BF0010024068
:100B20000022064B01281A701A7005D0042802D141
:100B300005221A70704770471870704720100240E5
:100B4000014B1860704700BF80044242024A136A9A
:100B500018431062704700BF00100240014B18603C
:100B6000704700BF3C0442421E4A10B4536803F071
:100B70000C03082B0FD153685168C3F38343C90397
:100B800003F1020328D55268920325D4164A02FBCA
:100B900003F3036001E0144B03601249134A4C68ED
:100BA000C4F30314145DE34043604C68C4F30224AF
:100BB000145D23FA04F484604C68C4F3C224145D09
:100BC000E340C360496810BCC1F381310A44127C20
:100BD000B3FBF2F303617047054A02FB03F30360C2
:100BE000DBE700BF0010024000127A001400002072
:100BF00000093D00044A536919B923EA0000506115
:100C0000704718435061704700100240044A9369CE
:100C100019B923EA0000906170471843906170474A
:100C200000100240044AD36919B923EA0000D061D8
:100C300070471843D061704700100240044AD368DF
:100C400019B923EA0000D06070471843D06070479C
:100C500000100240044A136919B923EA0000106128
:100C6000704718431061704700100240014B186034
:100C7000704700BF40044242014B1860704700BFFC
:100C80004C004242014B1870704700BF07100240F1
:100C90004309012B0BD0022B094B00F01F000CBFA6
:100CA0001B6A5B6A23FA00F000F001007047044BF6
:100CB00000F01F001B6823FA00F000F001007047ED
:100CC00000100240024A536A43F080735362704737
:100CD00000100240034B9B68184214BF0120002003
:100CE000704700BF00100240014B1870704700BFF2
:100CF0000A100240094B10B4012100241A4600EBEF
:100D0000C00058609C601960136803F00113012B48
:100D1000FAD0002310BC13609360704710E000E02D
:100D200042F22831094B30B4002501241A4601FB58
:100D300000F058609D601C60136803F00113012BE4
:100D4000FAD030BC002313609360704710E000E0DD
:100D5000844641EA000313F0030349D1403A23D308
:100D60000B6803604B6843608B688360CB68C3602B
:100D70000B6903614B6943618B698361CB69C36113
:100D80000B6A03624B6A43628B6A8362CB6AC362FB
:100D90000B6B03634B6B43638B6B8363CB6BC363E3
:100DA00040304031403ADBD230320BD30B68036025
:100DB0004B6843608B688360CB68C3601030103130
:100DC000103AF3D20C3205D351F8043B40F8043BFF
:100DD000043AF9D2043208D0D2071CBF11F8013B03
:100DE00000F8013B01D30B8803806046704700BFC9
:100DF000082A13D38B07B1D010F00303AED0C3F190
:100E00000403D21ADB071CBF11F8013B00F8013BB9
:100E1000A4D331F8023B20F8023B9FE7043AD9D330
:100E2000013A11F8013B00F8013BF9D20B7803704D
:100E30004B7843708B78837060467047F0B48607B8
:100E400043D0541E002A3ED0CAB2034602E014F139
:100E5000FF3438D303F8012B9D07F8D1032C2BD98D
:100E6000CDB245EA05250F2C45EA054516D9A4F172
:100E700010073F0903F1200606EB071603F11002E5
:100E800042E9045542E902551032B242F8D104F069
:100E90000F040137032C03EB07130DD91E4622461E
:100EA000043A032A46F8045BFAD8221F22F0030210
:100EB0000432134404F003042CB1C9B21C4403F8F7
:100EC000011B9C42FBD1F0BC704714460346C5E7AA
:100ED00000000000000000000102030406070809EA
:100EE00000A24A04000000000102030401020304FE
:080EF0000607080902040608C8
:04000005080001E509
:00000001FF
