:020000040800F2
:1000000000500020B5020008610200086D020008DF
:1000100073020008790200087F0200080000000057
:100020000000000000000000000000008502000841
:1000300091020008000000009D020008A9020008CB
:10004000FD020008FD020008FD020008FD02000894
:10005000FD020008FD020008FD020008FD02000884
:10006000FD020008FD020008FD020008FD02000874
:10007000FD020008FD020008FD020008FD02000864
:10008000FD020008FD020008FD020008FD02000854
:10009000FD020008FD020008FD020008FD02000844
:1000A000FD020008FD020008FD020008FD02000834
:1000B000FD020008FD020008FD020008FD02000824
:1000C000FD020008FD020008FD020008FD02000814
:1000D000FD020008FD020008FD020008FD02000804
:1000E000FD020008FD020008FD020008FD020008F4
:1000F000FD020008FD020008FD020008FD020008E4
:10010000FD020008FD020008FD020008FD020008D3
:10011000FD020008FD020008FD020008FD020008C3
:10012000FD020008FD020008FD020008FD020008B3
:1001300000000000000000000000000000000000BF
:1001400000000000000000000000000000000000AF
:10015000000000000000000000000000000000009F
:10016000000000000000000000000000000000008F
:10017000000000000000000000000000000000007F
:10018000000000000000000000000000000000006F
:10019000000000000000000000000000000000005F
:1001A000000000000000000000000000000000004F
:1001B000000000000000000000000000000000003F
:1001C000000000000000000000000000000000002F
:1001D000000000000000000000000000000000001F
:0401E0005FF8E0F1F3
:1001E40010B5054C237833B9044B13B10448AFF36D
:1001F40000800123237010BD2C04002000000000A7
:10020400F80B000808B5034B1BB103490348AFF3CF
:10021400008008BD0000000030040020F80B000836
:1002240080B500AF00F0ECFB00F0B6FB01224FF408
:100234000051094800F052F94FF4FA7000F080FBC5
:1002440000224FF40051044800F048F94FF4FA70CA
:1002540000F076FBEAE700BF0010014080B400AF75
:1002640000BFBD4680BC704780B400AFFEE780B4D9
:1002740000AFFEE780B400AFFEE780B400AFFEE756
:1002840080B400AF00BFBD4680BC704780B400AFEF
:1002940000BFBD4680BC704780B400AF00BFBD4600
:1002A40080BC704780B400AF00BFBD4680BC7047BF
:1002B400002103E00B4B5B58435004310A480B4BBD
:1002C40042189A42F6D30A4A02E0002342F8043B59
:1002D400084B9A42F9D300F079FA00F0D9FBFFF702
:1002E4009FFF7047200C0008000000202C04002011
:1002F4002C0400206C040020FEE7000080B485B0CC
:1003040000AF78600023FB60094B1B68FB60FB684F
:1003140003F03803FB60FA687B681343FB60044A0C
:10032400FB68136000BF1437BD4680BC704700BF34
:100334000020024080B483B000AF7860084B1B6893
:10034400074A23F010031360054B1A6804497B68BD
:1003540013430B6000BF0C37BD4680BC704700BF21
:100364000020024080B489B000AF78603960002377
:10037400FB6100233B610023BB610023FB6000237E
:100384007B610023BB603B68DB7803F00F03FB61F8
:100394003B68DB7803F01003002B05D03B689B78A7
:1003A4001A46FB691343FB613B681B88DBB2002BD5
:1003B40044D07B681B687B610023BB6138E0012269
:1003C400BB6902FA03F3FB603B681B881A46FB68AF
:1003D40013403B613A69FB689A4226D1BB699B0092
:1003E400FB600F22FB6802FA03F3BB60BB68DB43CC
:1003F4007A6913407B61FA69FB6802FA03F37A694C
:1004040013437B613B68DB78282B05D10122BB6950
:100414009A407B685A6108E03B68DB78482B04D13A
:100424000122BB699A407B681A61BB690133BB61D5
:10043400BB69072BC3D97B687A691A603B681B8840
:10044400FF2B46D97B685B687B610023BB613AE084
:10045400BB690833012202FA03F3FB603B681B8883
:100464001A46FB6813403B613A69FB689A4227D1FC
:10047400BB699B00FB600F22FB6802FA03F3BB60BD
:10048400BB68DB437A6913407B61FA69FB6802FA53
:1004940003F37A6913437B613B68DB78282B05D12E
:1004A400BB69083301229A407B685A613B68DB7858
:1004B400482B05D1BB69083301229A407B681A6135
:1004C400BB690133BB61BB69072BC1D97B687A69FE
:1004D4005A6000BF2437BD4680BC704780B483B0E7
:1004E40000AF78600B467B8013467B707B78002BD3
:1004F40003D07A887B681A6102E07A887B685A6143
:1005040000BF0C37BD4680BC7047000080B400AF0C
:10051400134B1B68124A43F001031360104B5A68D3
:100524000F49104B13404B600D4B1B680C4A23F0D2
:10053400847323F480331360094B1B68084A23F443
:1005440080231360064B5B68054A23F4FE03536063
:10055400034B4FF41F029A6000BFBD4680BC704736
:10056400001002400000FFF880B483B000AF786050
:10057400134B1B68124A23F480331360104B1B681F
:100584000F4A23F4802313607B68B3F5803F03D0C4
:10059400B3F5802F07D00DE0094B1B68084A43F4DC
:1005A4008033136006E0064B1B68054A43F4A0231E
:1005B400136000BF00BF0C37BD4680BC704700BF4E
:1005C4000010024080B485B000AF78603960002329
:1005D400FB600A4B5B68FB60FB6823F47C13FB60E5
:1005E4007A683B681343FA681343FB60034AFB6869
:1005F400536000BF1437BD4680BC704700100240F2
:1006040080B483B000AF0346FB71044AFB791360E6
:1006140000BF0C37BD4680BC704700BF600042423B
:1006240080B485B000AF78600023FB60094B5B6841
:10063400FB60FB6823F00303FB60FA687B681343E9
:10064400FB60044AFB68536000BF1437BD4680BC9E
:10065400704700BF0010024080B400AF044B5B68D9
:10066400DBB203F00C03DBB21846BD4680BC704716
:100674000010024080B485B000AF78600023FB60B6
:10068400094B5B68FB60FB6823F0F003FB60FA68CE
:100694007B681343FB60044AFB68536000BF143754
:1006A400BD4680BC704700BF0010024080B485B0D6
:1006B40000AF78600023FB60094B5B68FB60FB685C
:1006C40023F4E063FB60FA687B681343FB60044A2D
:1006D400FB68536000BF1437BD4680BC704700BF41
:1006E4000010024080B485B000AF78600023FB6046
:1006F400094B5B68FB60FB6823F46053FB607B6819
:10070400DB00FA681343FB60034AFB68536000BFD5
:100714001437BD4680BC70470010024080B483B0DB
:1007240000AF78600B46FB70FB78002B06D0094BBA
:100734009A6908497B6813438B6106E0054B9A6903
:100744007B68DB43034913408B6100BF0C37BD4614
:1007540080BC70470010024080B487B000AF0346ED
:10076400FB710023FB6000237B610023FB74FB7996
:100774005B09DBB2FB60FB68012B03D1124B1B68E6
:100784007B6109E0FB68022B03D10F4B1B6A7B6181
:1007940002E00D4B5B6A7B61FB7903F01F03FB6096
:1007A4007A69FB6822FA03F303F00103002B02D0F9
:1007B4000123FB7401E00023FB74FB7C18461C3707
:1007C400BD4680BC704700BF0010024080B500AF3A
:1007D400154B1B68144A43F001031360124B5A680B
:1007E4001149124B13404B600F4B1B680E4A23F008
:1007F400847323F4803313600B4B1B680A4A23F47D
:1008040080231360084B5B68074A23F4FE0353609C
:10081400054B4FF41F029A6000F00CF8044B4FF0A4
:1008240000629A6000BF80BD001002400000FFF823
:1008340000ED00E080B500AF00F002F800BF80BD1D
:1008440080B483B000AF00237B6000233B603A4B4D
:100854001B68394A43F480331360374B1B6803F435
:1008640000333B607B6801337B603B68002B03D122
:100874007B68B3F5A06FF0D12F4B1B6803F40033F2
:10088400002B02D001233B6001E000233B603B6866
:10089400012B4BD1294B1B68284A43F010031360EA
:1008A400264B1B68254A23F003031360234B1B6864
:1008B400224A43F0020313601F4B1F4A5B685360D4
:1008C4001D4B1D4A5B6853601B4B5B681A4A43F41B
:1008D40080635360184B5B68174A23F47C1353609E
:1008E400154B5B68144A43F4E8135360124B1B68BE
:1008F400114A43F08073136000BF0F4B1B6803F071
:100904000073002BF9D00C4B5B680B4A23F00303F4
:100914005360094B5B68084A43F00203536000BF0D
:10092400054B5B6803F00C03082BF9D100BF0C37AF
:10093400BD4680BC704700BF00100240002002404A
:1009440080B485B000AF7860124A7B6842F22831E7
:1009540001FB03F353600F4B00229A600D4B0122FD
:100964001A600C4B1B68FB60FB6803F00103002B4F
:1009740004D0FB6803F48033002BF2D0054B002233
:100984001A60044B00229A6000BF1437BD4680BC35
:10099400704700BF10E000E080B582B000AF4FF4B4
:1009A4008063BB800123BB710423FB713B1D19468B
:1009B4001148FFF7D7FC4FF40073BB800123BB71D0
:1009C4001023FB713B1D19460B48FFF7CBFC01219B
:1009D4001420FFF7A3FE4FF40053BB800123BB7127
:1009E4001023FB713B1D19460448FFF7BBFC00BFF5
:1009F4000837BD4680BD00BF00080140001001401B
:100A040080B500AFFFF782FD4FF48030FFF7ACFDF7
:100A140000BF3120FFF7A0FE0346002BF9D01020C1
:100A2400FFF788FC0220FFF769FC0020FFF722FE95
:100A34000020FFF757FE4FF48060FFF737FE4FF4B6
:100A4400E0114FF48030FFF7BDFD0120FFF7D8FD22
:100A540000BF3920FFF780FE0346002BF9D00220A7
:100A6400FFF7DEFD00BFFFF7F7FD0346082BFAD1C1
:100A740001211020FFF752FE01210120FFF74EFE55
:100A840001214FF48040FFF749FE00BF80BD000004
:100A940070B50D4E0D4D761BB61006D000240134F2
:100AA40055F8043B9847A642F9D1094E094D00F088
:100AB400A1F8761BB61006D00024013455F8043B87
:100AC4009847A642F9D170BD140C0008140C000814
:100AD4001C0C0008140C0008024B13B1024800F06F
:100AE40005B8704700000000FD0A00080023014615
:100AF4001A46184600F01EB838B50A4C0A4D641B55
:100B0400A4100AD004F18043013B05EB8305013CAA
:100B140055F804399847002CF9D1BDE8384000F065
:100B24006FB800BF200C00081C0C0008704700BF01
:100B3400704700BF2DE9F8432B4D064628689846B8
:100B44000F469146FFF7F2FF284B1C68D4F8483152
:100B5400002B3DD05A681F2A0DDC02F1010C16BB94
:100B64000232C3F804C0286843F82270FFF7E0FF9C
:100B74000020BDE8F8831E4B7BB34FF4C870AFF37D
:100B84000080034648B30020D4F848114FF0010C0C
:100B9400C3E900100246C4F84831C3F88801C3F819
:100BA4008C01002EDCD0012103EB8204C4F8889070
:100BB400D3F8880191400843022EC3F88801C4F891
:100BC4000881CDD1D3F88C010143C3F88C11C7E758
:100BD40004F5A673C4F84831BCE72868FFF7A8FFFA
:100BE4004FF0FF30C5E700BF28040020100C0008B8
:100BF40000000000F8B500BFF8BC08BC9E46704772
:0C0C0400F8B500BFF8BC08BC9E46704765
:040C100000000020C0
:080C1400DD0A000809020008D6
:040C1C00E5010008E6
:100C200000000000EC02002054030020BC03002060
:100C300000000000000000000000000000000000B4
:100C400000000000000000000000000000000000A4
:100C50000000000000000000000000000000000094
:100C60000000000000000000000000000000000084
:100C70000000000000000000000000000000000074
:100C80000000000000000000000000000000000064
:100C90000000000000000000000000000000000054
:100CA0000000000000000000000000000000000044
:100CB0000000000000000000000000000000000034
:100CC0000000000000000000010000000000000023
:100CD0000E33CDAB34126DE6ECDE05000B000000E8
:100CE0000000000000000000000000000000000004
:100CF00000000000000000000000000000000000F4
:100D000000000000000000000000000000000000E3
:100D100000000000000000000000000000000000D3
:0C10400000000000000000004804002038
:04000005080002B538
:00000001FF
