:020000040800F2
:10000000FFFF01203D020008E7010008F30100089E
:10001000F9010008FF0100080502000800000000C7
:100020000000000000000000000000000B020008BB
:100030001702000800000000230200082F02000839
:100040008D0200088D0200088D0200088D02000854
:100050008D0200088D0200088D0200088D02000844
:100060008D0200088D0200088D0200088D02000834
:100070008D0200088D0200088D0200088D02000824
:100080008D0200088D0200088D02000800000000AB
:100090000000000000000000000000008D020008C9
:1000A0008D0200088D0200088D0200088D020008F4
:1000B0008D0200088D0200088D0200088D020008E4
:1000C0008D0200088D0200088D0200088D020008D4
:1000D0008D0200088D0200088D020008000000005B
:1000E0008D0200088D0200088D020008000000004B
:1000F0000000000000000000000000008D02000869
:10010000000000008D0200088D0200088D0200082A
:1001100000000000000000000000000000000000DF
:100120008D0200088D0200088D0200088D02000873
:100130008D02000800000000000000000000000028
:100140000000000000000000000000008D02000818
:100150008D0200088D0200088D0200088D02000843
:100160008D0200088D020008000000000000000061
:10017000000000000000000000000000000000007F
:10018000000000008D0200080000000000000000D8
:080190008D0200088D02000839
:1001980010B5054C237833B9044B13B10448AFF3B9
:1001A80000800123237010BD2C04002000000000F3
:1001B800F004000808B5034B1BB103490348AFF32B
:1001C800008008BD0000000030040020F004000892
:1001D80080B400AF00231846BD4680BC704780B489
:1001E80000AF00BFBD4680BC704780B400AFFEE7DB
:1001F80080B400AFFEE780B400AFFEE780B400AF84
:10020800FEE780B400AF00BFBD4680BC704780B435
:1002180000AF00BFBD4680BC704780B400AF00BFD0
:10022800BD4680BC704780B400AF00BFBD4680BCEF
:1002380070470000DFF834D0002103E00C4B5B5816
:10024800435004310B480C4B42189A42F6D30B4AE0
:1002580002E0002342F8043B094B9A42F9D300F02C
:1002680013F800F08FF8FFF7B3FF7047FFFF012086
:1002780018050008000000202C0400202C04002091
:100288006C040020FEE7000080B500AF124B1B682D
:10029800114A43F0010313600F4B00229A600E4B82
:1002A8001B680D4A23F0847323F4803313600A4BD0
:1002B8000A4A5A60084B1B68074A23F480231360D4
:1002C800054B0022DA6000F00DF8054B4FF0006294
:1002D8009A6000BF80BD00BF003802401030002483
:1002E80000ED00E080B400AF224B1B6C214A43F0C4
:1002F80080531364204B1B681F4A43F44043136028
:100308001C4B1C4A9B6893601A4B1A4A9B68936063
:10031800184B9B68174A43F480539360154B174A50
:100328005A60144B1B68134A43F08073136000BF74
:10033800104B1B6803F00073002BF9D0104B40F2F0
:1003480002721A600B4B9B680A4A23F003039360FE
:10035800084B9B68074A43F00203936000BF054BB4
:100368009B6803F00C03082BF9D100BFBD4680BC85
:10037800704700BF00380240007000401064010759
:10038800003C024070B50D4E0D4D761BB61006D0E0
:100398000024013455F8043B9847A642F9D1094E88
:1003A800094D00F0A1F8761BB61006D000240134E0
:1003B80055F8043B9847A642F9D170BD0C050008D2
:1003C8000C050008140500080C050008024B13B1C1
:1003D800024800F005B8704700000000F503000867
:1003E800002301461A46184600F01EB838B50A4CD4
:1003F8000A4D641BA4100AD004F18043013B05EBAD
:100408008305013C55F804399847002CF9D1BDE81B
:10041800384000F06FB800BF180500081405000840
:10042800704700BF704700BF2DE9F8432B4D0646C3
:10043800286898460F469146FFF7F2FF284B1C683C
:10044800D4F84831002B3DD05A681F2A0DDC02F140
:10045800010C16BB0232C3F804C0286843F82270A6
:10046800FFF7E0FF0020BDE8F8831E4B7BB34FF495
:10047800C870AFF30080034648B30020D4F8481191
:100488004FF0010CC3E900100246C4F84831C3F824
:100498008801C3F88C01002EDCD0012103EB820413
:1004A800C4F88890D3F8880191400843022EC3F815
:1004B8008801C4F80881CDD1D3F88C010143C3F871
:1004C8008C11C7E704F5A673C4F84831BCE728685F
:1004D800FFF7A8FF4FF0FF30C5E700BF2804002052
:1004E8000805000800000000F8B500BFF8BC08BC0B
:1004F8009E467047F8B500BFF8BC08BC9E467047DA
:0405080000000020CF
:08050C00D5030008BD01000841
:040514009901000841
:1005180000000000EC02002054030020BC0300206F
:1005280000000000000000000000000000000000C3
:1005380000000000000000000000000000000000B3
:1005480000000000000000000000000000000000A3
:100558000000000000000000000000000000000093
:100568000000000000000000000000000000000083
:100578000000000000000000000000000000000073
:100588000000000000000000000000000000000063
:100598000000000000000000000000000000000053
:1005A8000000000000000000000000000000000043
:1005B8000000000000000000010000000000000032
:1005C8000E33CDAB34126DE6ECDE05000B000000F7
:1005D8000000000000000000000000000000000013
:1005E8000000000000000000000000000000000003
:1005F80000000000000000000000000000000000F3
:1006080000000000000000000000000000000000E2
:0C09380000000000000000004804002047
:040000050800023DB0
:00000001FF
